:020000040000FA
:10000000000000EB240000EB2C008FE2000C90E8D5
:1000100000A08AE000B08BE001704AE20B005AE1D8
:100020000000001A1C0000EB0F00BAE818E04FE2D5
:10003000010013E303F0471013FF2FE1500200000B
:10004000600200000030B0E30040B0E30050B0E3D5
:100050000060B0E3102052E27800A128FCFFFF8A84
:10006000822EB0E13000A128003081451EFF2FE133
:1000700001C08FE21CFF2FE11FB5059886460FBC1B
:10008000009C02B07047000001C08FE21CFF2FE10E
:1000900030B47546AE4630BC704700001A0000EB25
:1000A0000210A0E1F1FFFFEB1CC09FE50FC08CE048
:1000B00001001CE30DE08F120FE0A0011CFF2FE1F7
:1000C00001C08FE21CFF2FE100F050F8F0000000AB
:1000D0007847C04603002DE9EAFFFFEB0300BDE8C7
:1000E000290000EB0C009FE50C109FE504209FE524
:1000F00008309FE51EFF2FE16000004060040040D3
:100100006000004070477047704700000E50A0E14B
:100110001A0000EB05E0A0E10050B0E10D10A0E1F5
:100120000A30A0E10700C0E300D0A0E160D08DE27A
:1001300020402DE9EAFFFFEB2040BDE80060A0E38E
:100140000070A0E30080A0E300B0A0E30710C1E3CB
:1001500005C0A0E1C009ACE8C009ACE8C009ACE842
:10016000C009ACE801D0A0E11EFF2FE110B50400EA
:10017000C046C0462000FFF7ABFF10BC08BC1847C4
:1001800000009FE51EFF2FE10000004001C08FE24C
:100190001CFF2FE101491820ABDFFEE7260002001B
:1001A0001EFF2FE110D04DE20C008DE2C4109FE540
:1001B000081091E5FF1081E3B8209FE5081082E563
:1001C0000000A0E12A0000EA0000A0E3260000EA07
:1001D0000010A0E1A0C09FE50C109CE80C108DE879
:1001E000000051E3040000BA090051E3020000CA14
:1001F0000120DDE77C309FE5042083E50000A0E1DD
:100200000000A0E1FA1FA0E30020A0E3050000EA3F
:100210000030A0E3000000EA013083E2FA0F53E36C
:10022000FCFFFFBA012082E2010052E1F7FFFFBAB2
:100230000000A0E10010A0E13CC09FE50C109CE88C
:100240000C108DE8000051E3040000BA090051E3EE
:10025000020000CA0120DDE718309FE50C2083E58D
:100260000000A0E10000A0E1010080E2090050E3ED
:10027000D6FFFFDAD3FFFFEA008002E08002000031
:100280003F065B4F666D7D077F6F00009C0200009C
:0C02900000000040E804000044000000F2
:0400000500000000F7
:00000001FF
